:10000000B8C0D2C0D1C0D0C0CFC0CEC0CDC0CCC08F
:10001000CBC0CAC0C9C0C8C0C7C0C6C0C5C0C4C0A4
:10002000C3C0C2C0EEC620C7BFC0BEC0BDC0BCC03A
:10003000BBC0BAC06E616E00696E66004E414E492B
:100040004E495459494E46CDCCCC3D0AD7233C1796
:10005000B7D13877CC2B329595E6241FB14F0A00E3
:100060000020410000C84200401C4620BCBE4CCAD3
:100070001B0E5AAEC59D7400407A10F35A00A07250
:100080004E18090010A5D4E80000E87648170000D3
:10009000E40B54020000CA9A3B000000E1F50500A1
:1000A0000080969800000040420F000000A08601EA
:1000B000000000102700000000E8030000000064BA
:1000C00000000000000A0000000000010000000025
:1000D000002C76D888DC674F0823DFC1DFAE59E1FA
:1000E000B1B796E5E3E453C63AE651997696E8E669
:1000F000C28426EB898C9B62ED407C6FFCEFBC9C3C
:100100009F40F2BAA56FA5F490055A2AF75C936B4D
:100110006CF9676DC11BFCE0E40D47FEF520E6B508
:1001200000D0ED902E0300943577050080841E08E2
:100130000000204E0A000000C80C333333330F9800
:100140006E12831141EF8D2114893BE65516CFFEC7
:10015000E6DB18D1844B381BF77C1D901DA4BBE453
:1001600024203284725E228100C9F124ECA1E53D95
:10017000270011241FBECFEFD4E0DEBFCDBF11E0BA
:10018000A0E0B1E0EEE3FFE102C005900D92A43FD4
:10019000B107D9F723E0A4EFB1E001C01D92A03967
:1001A000B207E1F75ED3C9CE2BCFA3E1B0E0EAED11
:1001B000F0E084C87C011B016A01FC0117821682F1
:1001C000838181FF49C3BE016F5F7F4F4B01F70100
:1001D0009381F10193FD859193FF81911F01882304
:1001E00009F436C3853239F493FD859193FF8191EB
:1001F0001F01853231F4B70190E04ADD56016501F7
:10020000E6CF10E0512C20E02032A0F48B3269F0D0
:1002100030F4803259F0833269F420612CC08D3281
:1002200039F0803339F4216026C02260246023C075
:10023000286021C027FD27C030ED380F3A3078F410
:1002400026FF06C0FAE01F9F300D1124132F13C0A4
:100250006AE0569E300D1124532E20620CC08E325F
:1002600021F426FDF5C2206406C08C3611F4206806
:1002700002C0883641F4F10193FD859193FF81918D
:100280001F018111C1CF9BEB980F933018F42061AF
:10029000805E06C09BE9980F933008F09AC12F7ECC
:1002A00026FF16E02F73722E853621F4F22FF064AC
:1002B0007F2E08C0863621F4622F6068762E02C039
:1002C0001111115077FE07C01C3348F444244394A5
:1002D000410E27E00BC0183030F4212F06C027E074
:1002E0004CE3442E03C027E017E0412C560174E094
:1002F000A70EB11CF6016081718182819381042D6A
:10030000A401B1DB6C01098100FF02C003FF06C03C
:1003100071FC07C072FC08C0612C08C03DE2632E6E
:1003200005C02BE2622E02C090E2692E802F8C70F5
:1003300081F1662011F084E001C083E0851510F0A2
:10034000512C0AC0581A73FC07C0B70180E290E034
:100350009FDC5A94D1F7F4CF662021F0B701862DA7
:1003600090E096DC03FD03C008E310E002C004E364
:1003700010E0F72DF0717F2EF8018491882309F4A5
:100380005EC271108052B70190E082DC0F5F1F4F98
:10039000F3CF77FE0FC04C0C04FF04C08A81813379
:1003A00009F44A94141474F5F8E0F41578F588E02B
:1003B000482E2CC076FC2AC0812F90E08C159D051C
:1003C0009CF06CEFC6166FEFD60674F0772D706850
:1003D000772E0AC0E2E0F0E0EC0FFD1FE10FF11D07
:1003E0008081803319F411501111F4CF77FE0EC0C3
:1003F00044244394410E812F90E0C816D9062CF472
:100400001C1904C04424439401C010E077FE07C0C7
:100410001C141D043CF496012F5F3F4F05C025E0DE
:1004200030E002C021E030E0662011F02F5F3F4F46
:10043000112331F0412F50E04F5F5F4F240F351FE4
:10044000452D50E02417350714F4521A01C0512CE1
:10045000872D897041F4552031F0B70180E290E09A
:1004600017DC5A94F8CF662021F0B701862D90E072
:100470000FDC73FC08C0552031F0B70180E390E039
:1004800007DC5A94F8CF77FE5DC09C2D8D2DD7FEEA
:1004900002C090E080E0692E782E40E050E0C60176
:1004A000841991099D878C87960126193709280D93
:1004B000391D812F90E0EE27FF27E81BF90BFF87FE
:1004C000EE87FFEF6F167F0661F4B7018EE290E0D2
:1004D0002B8B3A8B488B598BDBDB598948893A89BE
:1004E0002B89C614D70454F06C857D856615770575
:1004F0002CF4F901E40FF51F818101C080E371E064
:10050000671A71084F5F5F4FEE85FF856E167F0695
:1005100064F0B70190E02B8B3A8B488B598BB8DB9A
:100520002B893A8948895989CCCF6C147D0439F4D8
:100530009A81963318F4953311F404FF81E3B701DF
:1005400090E045C08A81813309F00F7EB70190E0C9
:100550009FDB111105C074FE16C085E490E015C044
:10056000B7018EE290E094DB82E066246394680E2B
:10057000F401E80FF11D8081B70190E089DB115093
:1005800051F3862DF2CF85E690E0B70181DBD7FCF1
:1005900005C0C114D10439F404FF05C0D194C1943D
:1005A000D1088DE201C08BE2B70190E071DB80E3FE
:1005B0006AE0C616D1042CF08F5FFAE0CF1AD1089A
:1005C000F7CFB70190E064DBB701C601C09660DBEE
:1005D00036C1833631F0833779F0833509F054C062
:1005E00020C0560172E0A70EB11CF60180818983FC
:1005F00001E010E0640113C05601F2E0AF0EB11C3F
:10060000F601C080D18026FF03C0612F70E002C0D8
:100610006FEF7FEFC6012B8B30DB8C012B892F779F
:1006200014C05601F2E0AF0EB11CF601C080D180BB
:1006300026FF03C0612F70E002C06FEF7FEFC6019D
:100640002B8B09DB8C012B892068722E23FD18C0AF
:10065000852D90E00817190798F4B70180E290E023
:1006600017DB5A94F5CFF60177FC859177FE8191DF
:100670006F01B70190E00CDB51105A940150110941
:100680000115110581F7DBC0843611F0893649F573
:10069000560127FF09C0F4E0AF0EB11CF6016081DE
:1006A0007181828193810AC0F2E0AF0EB11CF60124
:1006B00060817181882777FD8095982F022F0F76B2
:1006C00097FF08C090958095709561957F4F8F4FEB
:1006D0009F4F00682AE030E0A40155DBC82EC818FF
:1006E0003DC0022F853721F40F7E2AE030E01DC087
:1006F000097F8F3691F018F4883559F0A9C08037FA
:1007000019F0883711F0A4C0006104FF09C004602B
:1007100007C024FF08C0066006C028E030E005C01E
:1007200020E130E002C020E132E0560107FF09C0BD
:10073000F4E0AF0EB11CF60160817181828193817A
:1007400008C0F2E0AF0EB11CF6016081718180E05B
:1007500090E0A40118DBC82EC8180F7706FF0BC065
:10076000202F2E7FC11650F404FF0AC002FD08C0DE
:10077000202F2E7E05C0DC2C202F03C0DC2C01C0D6
:10078000D12E24FF0DC0FE01EC0DF11D80818033C0
:1007900011F4297E09C022FF06C0D394D39404C06B
:1007A000822F867809F0D39423FD12C020FF06C063
:1007B0001C2DD51418F4150D1D19D52CD51460F465
:1007C000B70180E290E02B8B63DAD3942B89F6CFCC
:1007D000D51410F45D1801C0512C24FF11C0B701CD
:1007E00080E390E02B8B54DA2B8922FF16C021FF87
:1007F00003C088E590E002C088E790E0B7010CC034
:10080000822F867851F021FD02C080E201C08BE288
:1008100027FD8DE2B70190E03BDAC11630F4B70155
:1008200080E390E035DA1150F8CFCA94F401EC0D72
:10083000F11D8081B70190E02BDAC110F6CF552071
:1008400009F4DDCCB70180E290E022DA5A94F7CFC8
:10085000F7018681978102C08FEF9FEF6396E2E1F7
:1008600049C5E7D3882309F45EC01AE001E082E0BD
:10087000782EC0917903D0917A038BD26A837B83DF
:100880008C839D839BD3892B09F009D4E091790354
:10089000F0917A03E0811E9FF0011124EA5FFE4F80
:1008A0000190F081E02D0995C0917903D0917A03F0
:1008B000898182FF1982CA80DB80EC80FD808E8076
:1008C0009F80A884B9842E853F8548895989C501B0
:1008D000B4012CD59B01AC01C701B60141D687FDFF
:1008E00004C089818470802789832A853B854C8553
:1008F0005D85C501B40119D59B01AC01C701B601E5
:1009000079D5181624F08981847087258983898197
:10091000E8811E9FF0011124EA5FFE4FE80FF11DF0
:1009200082818883A6CF08952FB7F894389A40988B
:1009300088E691E00197F1F7409A80EA8A95F1F70D
:100940002FBF0895811101C0EFCF9FB7F894389A57
:1009500040988AE18A95F1F7409A80EA8A95F1F702
:100960009FBF08952FB7F894389A40988AE08A95E7
:10097000F1F738988AE38A95F1F786B19AEF9A955C
:10098000F1F72FBF817008952FB7F894389A4098E7
:1009900080ED97E00197F1F7389888EC90E00197A7
:1009A000F1F786B180958170E0EDF7E03197F1F7CE
:1009B0002FBF0895CF93DF93D82FC8E08D2F81707C
:1009C000C1DFD695C150D1F785E08A95F1F7DF9167
:1009D000CF910895AF92BF92CF92DF92EF92FF92A4
:1009E0000F931F93CF93DF93EC018B01CDDF80EF4B
:1009F000E1DFB12CD12C88EFC82EEE24E394F12C4A
:100A0000B1DFA82EAA0CAEDF8A0DED2DE695E69596
:100A1000E6959D2DEC9D900D1124823089F49E0168
:100A20002E0F311DF901970102C0220F331F9A9535
:100A3000E2F7C9019081980F908381E083DF2BC09A
:100A4000813041F1811130C0B11024C00115110570
:100A500009F1F0E0D801AE0FBF1F2C9130E0092E54
:100A600002C0359527950A94E2F720FD0FC0EC0FE0
:100A7000FD1F970102C0220F331F9A95E2F7C901AB
:100A80009081980F908381E05DDF01C04DDFBB2432
:100A9000B39401C049DFD39430E4D312B1CF81E0E5
:100AA000BB2019F080E001C082E0DF91CF911F915F
:100AB0000F91FF90EF90DF90CF90BF90AF9008958F
:100AC0001F93CF93DF93C0E0D0E010E04BDF282FDF
:100AD0000C2E01C0220F0A94EAF7120F2196C8309B
:100AE000D105A1F7812FDF91CF911F910895389AF9
:100AF000409A0895EF92FF920F931F93CF93DF9345
:100B0000EC0142DF85E556DFF12C28EFE22E01E013
:100B100010E02F2D2695269526958F2D2E9D800D44
:100B20001124A80102C0440F551F8A95E2F7CA019B
:100B3000FE01E20FF11D9081892304DFF39450E45C
:100B4000F512E7CFDF91CF911F910F91FF90EF90BA
:100B500008958CEC2FCF60E070E08BE793E03ADFF4
:100B6000813021F48093830380E00895823011F472
:100B700081E0089582E008958BE793E00895EF9275
:100B8000FF921F93CF93DF931F92CDB7DEB7182F3D
:100B90007C018E2D811B861738F4F70181917F012E
:100BA000698308DF6981F5CF0F90DF91CF911F91A5
:100BB000FF90EF900895EF92FF921F93CF93DF93F2
:100BC0001F92CDB7DEB7182F7C018E2D811B8617A3
:100BD00038F4698375DFF70181937F016981F5CF6F
:100BE0000F90DF91CF911F91FF90EF900895CF93D9
:100BF000C82F611104C08C2FDDDE81E003C0C4DE8C
:100C00008111F9CFCF910895262F30E0382BC901FB
:100C10008827987F892B29F03195219531096DE23C
:100C200001C06BE2C90144E0969587954A95E1F7CA
:100C30002F703327E1E7F2E02E9FA0012F9F500D88
:100C40003E9F500D1124782FCA010895BF92CF9274
:100C5000DF92EF92FF920F931F93CF93DF9394DE77
:100C6000882309F440C077DF8130D9F028F0823042
:100C7000D9F48CE491E002C084E291E09F938F93D9
:100C800039D80F900F90CBE7D3E0B12C03E911E0F6
:100C900056E9E52E51E0F52E63E3C62E61E0D62E2F
:100CA00006C086E391E0EACF83E791E0E7CF899140
:100CB0001F928F931F930F931DD80F900F900F903B
:100CC0000F9087E0B81203C0DF92CF9202C0FF926C
:100CD000EF9210D80F900F90B39488E0B812E7CF3E
:100CE00088E991E002C085EB91E09F938F9302D851
:100CF0000F900F90DF91CF911F910F91FF90EF9088
:100D0000DF90CF90BF900895CF92DF92EF92FF9245
:100D10000F931F93CF93DF93CDB7DEB7A0970FB696
:100D2000F894DEBF0FBECDBFF62EE72ED82EC92E0B
:100D30004EE150E060E070E08E010F5F1F4FC80190
:100D400095D7CF92DF921F92EF9282ED91E09F9321
:100D50008F931F930F93DFD7BE01615E7F4FC80152
:100D60002AD50FB6F894DEBF0FBECDBF3DE2F31219
:100D700001C09058A0960FB6F894DEBF0FBECDBF4D
:100D8000DF91CF911F910F91FF90EF90DF90CF9067
:100D90000895CF93DF93CDB7DEB729970FB6F894B8
:100DA000DEBF0FBECDBF61E08CEC21DF811105C03D
:100DB00066EF7FE38CE196EC1BC084E4FBDD88E802
:100DC00093E120E931E0F9013197F1F701970097BC
:100DD000D1F761E08CEC0BDF882351F38EEBEADD79
:100DE00069E0CE010196E7DE69818A810DDF8CDF43
:100DF00029960FB6F894DEBF0FBECDBFDF91CF911D
:100E000008951F920F920FB60F9211242F933F93C4
:100E10004F935F938F939F93EF93FF934091C00005
:100E20005091C60048718091F6018F5F90E020914B
:100E3000F50130E08217930739F08093F601FC0149
:100E4000E750FE4F508301C042E04093F401FF9110
:100E5000EF919F918F915F914F913F912F910F90C3
:100E60000FBE0F901F9018951F920F920FB60F9202
:100E700011248F939F93EF93FF939091F8018091AA
:100E8000F701981779F08091F70190E001968F773C
:100E900099278093F701FC01E750FD4F80818093F3
:100EA000C60005C08091C1008F7D8093C100FF9175
:100EB000EF919F918F910F900FBE0F901F901895FB
:100EC0001092F8011092F7011092F6011092F501BC
:100ED00097FF04C022E02093C0009F779093C50045
:100EE0008093C40088E98093C10086E08093C200AB
:100EF00008959091F6018091F501981791F08091F5
:100F0000F5018F5F90E08093F501FC01E750FE4F03
:100F100020818091F40190E0982F8827820F911D05
:100F2000089580E091E008959091F6018091F50197
:100F3000981779F0E091F501EF5FF0E0E750FE4F90
:100F400020818091F40190E0982F8827820F911DD5
:100F5000089580E091E008952091F80130E02F5F3E
:100F60003F4F2F7733274091F70150E02417350783
:100F7000D1F3F901E750FD4F80832093F801809170
:100F8000C10080628093C1000895CF93DF93EC018C
:100F90008991882311F0E0DFFBCFDF91CF91089595
:100FA000CF93DF93FC018491EF012196882319F000
:100FB000D3DFFE01F8CFDF91CF9108958091F60144
:100FC0009091F501891B90E008958091F50180933F
:100FD000F6010895CF92DF92EF92FF920F931F9345
:100FE000CF93DF93CDB7DEB7CE010B96FC01C19056
:100FF000D1907F0120E0822F90E0F601E80FF91FE9
:101000003081332311F02F5FF6CF880F991FACD2B8
:101010008C01A701B6019ED6C801B7DFC8013CD339
:10102000DF91CF911F910F91FF90EF90DF90CF90C4
:101030000895789483E390E043DF80E884B982E107
:1010400090E092D2FC0190937A0380937903009709
:1010500021F11182108240E050E06CEC71E4468393
:1010600057836087718740E050E060E87EE3468701
:101070005787608B718B42875387648775871F9270
:1010800081E18F938FEE91E09F938F93A3DF0F9079
:101090000F900F900F9081E0089580E00895AF9237
:1010A000BF92CF92DF92EF92FF920F931F93CF9355
:1010B000DF9300D01F92CDB7DEB78E010F5F1F4FB9
:1010C000E12CF12CB02EA12E30E2C32E3EE4D32E23
:1010D00075DF892B19F4C6010197F1F70ADFF801D2
:1010E00081938F018D3231F4EB2DFA2DEE0DFF1D22
:1010F000108207C0FFEFEF1AFF0A83E0E816F10441
:1011000039F789818A3A09F450C0C0F5823209F46E
:101110009FC0833309F0ADC0E0917903F0917A0369
:1011200085858F9384858F9383858F9382858F9315
:1011300081898F9380898F9387858F9386858F93FD
:1011400081858F9380858F9387818F9386818F93FD
:1011500080811F928F9385818F9384818F93838168
:101160008F9382818F9388ED91E09F938F9332DFED
:101170000FB6F894DEBF0FBECDBF87C08C3CD9F14F
:101180008F3F21F08B3B09F074C01FC01F928AED86
:101190008F9385ED91E09F938F931CDFE09179030E
:1011A000F0917A03818184600EC01F928BED8F9342
:1011B00085ED91E09F938F930DDFE0917903F0919E
:1011C0007A0381818B7F81835CC06A81603380F484
:1011D0000091790310917A0370E080E090E00ED1E5
:1011E000F80166837783808791871F928CED43C0D7
:1011F0001F9280EF40C0BA800091790310917A036A
:101200006B2D70E080E090E0FBD06B017C01F80179
:10121000268137814085518560E070E088E492E462
:1012200084D09B01AC01C701B601E4D087FF0DC09B
:101230006B2D70E080E090E0E1D0F8016687778761
:10124000808B918B1F928DED16C01F9282EF13C081
:101250008A8181110BC0E0917903F0917A031286A3
:101260001386148615861F928FED05C01F928AEF94
:1012700002C01F9288EF8F9385ED91E09F938F932B
:10128000A9DE0F900F900F900F900F900F900F907E
:10129000DF91CF911F910F91FF90EF90DF90CF9052
:1012A000BF90AF9092CE83B1811101C02F9A089563
:1012B00083B1803811F485B115B808952F923F920B
:1012C0004F925F926F927F928F929F92AF92BF9256
:1012D000CF92DF92EF92FF920F931F93CF93DF9302
:1012E000CDB7DEB7CA1BDB0B0FB6F894DEBF0FBE5F
:1012F000CDBF09942A88398848885F846E847D84AC
:101300008C849B84AA84B984C884DF80EE80FD80AD
:101310000C811B81AA81B981CE0FD11D0FB6F89423
:10132000DEBF0FBECDBFED0108955058BB27AA27E1
:101330000ED0DCC0CDD030F0D2D020F031F49F3FC1
:1013400011F41EF4C2C00EF4E095E7FBB8C0E92F1B
:10135000DED080F3BA17620773078407950718F089
:1013600071F49EF5F6C00EF4E0950B2EBA2FA02D69
:101370000B01B90190010C01CA01A0011124FF2742
:10138000591B99F0593F50F4503E68F11A16F0403D
:10139000A22F232F342F4427585FF3CF469537953C
:1013A0002795A795F0405395C9F77EF41F16BA0B01
:1013B000620B730B840BBAF09150A1F0FF0FBB1FAF
:1013C000661F771F881FC2F70EC0BA0F621F731FF8
:1013D000841F48F4879577956795B795F7959E3F55
:1013E00008F0B3CF9395880F08F09927EE0F9795E3
:1013F0008795089540D008F481E00895E89409C0E5
:1014000097FB3EF490958095709561957F4F8F4F37
:101410009F4F9923A9F0F92F96E9BB279395F6954D
:10142000879577956795B795F111F8CFFAF4BB0FCB
:1014300011F460FF1BC06F5F7F4F8F4F9F4F16C02F
:10144000882311F096E911C0772321F09EE8872FB9
:10145000762F05C0662371F096E8862F70E060E075
:101460002AF09A95660F771F881FDAF7880F9695EE
:10147000879597F90895990F0008550FAA0BE0E892
:10148000FEEF16161706E807F907C0F01216130646
:10149000E407F50798F0621B730B840B950B39F486
:1014A0000A2661F0232B242B252B21F408950A26EC
:1014B00009F4A140A6958FEF811D811D089597F92C
:1014C0009F6780E870E060E008959FEF80EC0895EA
:1014D00000240A9416161706180609060895002413
:1014E0000A9412161306140605060895092E03948D
:1014F000000C11F4882352F0BB0F40F4BF2B11F401
:1015000060FF04C06F5F7F4F8F4F9F4F089557FD5F
:101510009058440F551F59F05F3F71F04795880F61
:1015200097FB991F61F09F3F79F0879508951216F8
:1015300013061406551FF2CF4695F1DF08C01616A4
:1015400017061806991FF1CF869571056105089455
:101550000895E894BB2766277727CB0197F908956C
:101560008ADF08F48FEF0895CF93DF9382309105DF
:1015700010F482E090E0E0918603F091870320E090
:1015800030E0A0E0B0E0309739F140815181481758
:101590005907B8F04817590771F482819381109761
:1015A00029F013969C938E9312972CC090938703E7
:1015B0008093860327C02115310531F04217530768
:1015C00018F0A901DB0101C0EF019A01BD01DF01A3
:1015D0000280F381E02DD7CF21153105F9F0281BCA
:1015E000390B2430310580F48A819B8161157105A6
:1015F00021F0FB019383828304C09093870380933F
:101600008603FE01329644C0FE01E20FF31F819370
:10161000919322503109398328833AC02091840361
:1016200030918503232B41F4209102013091030175
:1016300030938503209384032091000130910101B0
:101640002115310541F42DB73EB740910401509169
:101650000501241B350BE0918403F0918503E2170B
:10166000F307A0F42E1B3F0B2817390778F0AC01C5
:101670004E5F5F4F2417350748F04E0F5F1F5093A2
:101680008503409384038193919302C0E0E0F0E0EE
:10169000CF01DF91CF910895CF93DF93009709F4A5
:1016A00087C0FC01329713821282C0918603D091C9
:1016B0008703209781F420813181280F391F809181
:1016C0008403909185038217930779F5F09385033E
:1016D000E09384036DC0DE0120E030E0AE17BF0769
:1016E00050F412964D915C9113979D01411551054F
:1016F00009F1DA01F3CFB383A28340815181840FD2
:10170000951F8A179B0771F48D919C911197840FF7
:10171000951F02969183808312968D919C911397C9
:10172000938382832115310529F4F0938703E09395
:1017300086033EC0D9011396FC93EE9312974D9108
:101740005D91A40FB51FEA17FB0779F480819181A1
:10175000840F951F0296D90111969C938E938281D6
:10176000938113969C938E931297E0E0F0E08A8128
:101770009B81009719F0FE01EC01F9CFCE01029692
:1017800028813981820F931F209184033091850332
:101790002817390769F4309729F4109287031092BB
:1017A000860302C013821282D0938503C093840300
:1017B000DF91CF910895A0E0B0E0E0EEFBE084CDB2
:1017C0008B016115710521F0DB018C9311969C93BF
:1017D000EC015E01BFEFAB1ABB0A7501C8808C2D0E
:1017E00090E019D2892B11F0E501F3CFEDE2CE1292
:1017F00008C07E01F2E0EF0EF11CC980DD24D39415
:1018000009C02BE2C21205C07E0142E0E40EF11CC9
:10181000C980D12CE701219743E050E064E470E0F7
:10182000CE0101D2892BB9F4239645E050E06FE355
:1018300070E0CE01F8D1892B09F425960115110528
:1018400019F0D801CD93DC93D11000C160E070E0B5
:1018500080E89FE704C143E050E06CE370E0CE0114
:10186000E2D1892B59F40115110509F4F4C0B2E055
:10187000EB0EF11CF801F182E082EDC0F70160E0AF
:1018800070E0CB01C0E0D0E07F01A0EDAA2EAC0C4F
:1018900029E02A1528F14D2D4260B42E2D2D2870F7
:1018A000D2FE04C0211124C0219622C0211121970B
:1018B000A5E0B0E09B01AC012AD3660F771F881F1B
:1018C000991F6A0D711D811D911D6839A9E97A075B
:1018D0008A07A9E19A0760F0BD2DB660BB2E08C04B
:1018E0002EEFA2120AC0D3FC50C04D2D4860B42E7A
:1018F0003196D701CC90DB2CC7CF2C2D2F7D2534F2
:1019000009F043C0A081AD3241F4BD2DB061DB2EA2
:101910007F0122E0E20EF11C0CC07F01AB3231F0FE
:101920004FEFE41AF40A21E030E006C0A2E0EA0E2C
:10193000F11CA18122E030E0A053AA3018F0E21A95
:10194000F30A23C0F70120E030E02038BCE03B0779
:101950005CF4A901440F551F440F551F240F351F78
:10196000220F331F2A0F311DAF014F5F5F4F7A01E6
:10197000A081A053AA3010F4FA01E7CFD4FE03C02F
:10198000319521953109C20FD31FD1FE09C0011530
:10199000110531F0E1E0EE1AF108D801ED92FC9268
:1019A0002DDD2D2D2370233019F04B015C0106C075
:1019B0004B015C01B7FAB094B7F8B09420E030E086
:1019C000A901C501B40116DD882309F43CC0D7FF85
:1019D00006C0D195C195D1090BE510E002C003E71F
:1019E00010E06801B8E1CB1AD10890E2E92EF12CA1
:1019F000CE15DF056CF0F801259135914591549194
:101A0000C501B4011ED24B015C01CE19DF09F0CF34
:101A100004501109F594E7940C151D0549F78A2D1A
:101A2000880F8B2D881F8F3F41F020E030E0A90107
:101A3000C501B401DFDC811106C082E290E0909321
:101A4000890380938803C501B40109C060E070E098
:101A500080E89FEF04C060E070E080EC9FE7CDB7C6
:101A6000DEB7ECE04DCC283008F027E03327DA0170
:101A7000990F311D87FD916000966105710539F45C
:101A800032602E5F3D9330E32A95E1F708959F3F42
:101A900030F080387105610509F03C5F3C5F3D9393
:101AA000913008F08068911DDF93CF931F930F93BF
:101AB000FF92EF92192F987F9695E92F969596951C
:101AC000E90FFF27EF52FF4F99273327EE24FF241A
:101AD000A701E70105900894079428F4360FE71E44
:101AE000F81E491F511D660F771F881F991F069406
:101AF000A1F70590079428F4E70EF81E491F561F1A
:101B0000C11D770F881F991F661F0694A1F70590C6
:101B1000079428F4F80E491F561FC71FD11D880FC0
:101B2000991F661F771F0694A1F70590079420F46C
:101B3000490F561FC71FD81F990F661F771F881F91
:101B40000694A9F784911095177041F0D695C79522
:101B500057954795F794E7941A95C1F7E7E7F0E0B2
:101B600068941590159135916591959105907FE256
:101B70007395E118F10A430B560BC90BD009C0F756
:101B8000E10CF11E431F561FC91FD01D7EF4703398
:101B900011F48A95E6CFE894015030F0080F0AF46A
:101BA0000027021708F4202F2395022F7A3328F0FC
:101BB00079E37D932A95E9F710C07D932A9589F6FC
:101BC000069497956795379517951794E118F10A3C
:101BD000430B560BC90BD00998F023957E91739552
:101BE0007A3308F070E37C932013B8F77E9170612C
:101BF0007D9330F0839571E37D9370E32A95E1F74F
:101C00001124EF90FF900F911F91CF91DF919927B1
:101C100087FD90950895911177C1803219F0895010
:101C20008550D0F70895FB01DC014150504088F009
:101C30008D9181341CF08B350CF4805E659161349C
:101C40001CF06B350CF4605E861B611171F3990B0F
:101C50000895881BFCCFFC01059061507040011075
:101C6000D8F7809590958E0F9F1F0895DC0101C0D5
:101C70006D9341505040E0F70895FC016150704071
:101C800001900110D8F7809590958E0F9F1F0895B1
:101C90000F931F93CF93DF93182F092FEB018B81A5
:101CA00081FD03C08FEF9FEF20C082FF10C04E81E7
:101CB0005F812C813D81421753077CF4E881F981D3
:101CC0009F012F5F3F4F39832883108306C0E8852B
:101CD000F985812F0995892B29F72E813F812F5F67
:101CE0003F4F3F832E83812F902FDF91CF911F9104
:101CF0000F910895A0E0B0E0EFE7FEE0EFCAFE012B
:101D0000359661917191AF0180918C0390918D0313
:101D10004CD2E2E0FFCAAEE0B0E0E0E9FEE0DCCAAF
:101D20000D891E8986E08C831A8309838FEF9FE7D4
:101D30009E838D83AE01475E5F4F6F89788DCE01A4
:101D4000019633D2EF81F885E00FF11F10822E96B5
:101D5000E4E0DECAAEE0B0E0EFEAFEE0BDCA8C012E
:101D600086E08C831A8309838FEF9FE79E838D83A0
:101D7000CE0101961AD2EF81F885E00FF11F108293
:101D80002E96E4E0C5CAFA01AA27283051F1203185
:101D900081F1E8946F936E7F6E5F7F4F8F4F9F4FFF
:101DA000AF4FB1E03ED0B4E03CD0670F781F891F41
:101DB0009A1FA11D680F791F8A1F911DA11D6A0F0F
:101DC000711D811D911DA11D20D009F468943F91C2
:101DD0002AE0269F11243019305D3193DEF6CF01C1
:101DE0000895462F4770405D4193B3E00FD0C9F787
:101DF000F6CF462F4F70405D4A3318F0495D31FDF4
:101E00004052419302D0A9F7EACFB4E0A695979546
:101E1000879577956795BA95C9F70097610571051C
:101E200008959B01AC010A2E069457954795379566
:101E30002795BA95C9F7620F731F841F951FA01DC0
:101E400008950BD053CB44DB28F049DB18F09523E1
:101E500009F035CB3ACB11247DCB59DBA0F3959F0C
:101E6000D1F3950F50E0551F629FF001729FBB2781
:101E7000F00DB11D639FAA27F00DB11DAA1F649F2D
:101E80006627B00DA11D661F829F2227B00DA11DE0
:101E9000621F739FB00DA11D621F839FA00D611D66
:101EA000221F749F3327A00D611D231F849F600D87
:101EB000211D822F762F6A2F11249F5750408AF0C0
:101EC000E1F088234AF0EE0FFF1FBB1F661F771F4C
:101ED000881F91505040A9F79E3F510570F0EFCAFE
:101EE00039CB5F3FECF3983EDCF3869577956795A9
:101EF000B795F795E7959F5FC1F7FE2B880F911D6A
:101F00009695879597F9089599278827089509D078
:101F1000A59F900DB49F900DA49F800D911D11243D
:101F20000895A29FB001B39FC001A39F01D0B29FAB
:0E1F3000700D811D1124911D0895F894FFCFAE
:101F3E00000090032000580900000000010102007B
:101F4E0058090000000000010200530900000000C3
:101F5E00000102003E204275732054657374202DDB
:101F6E00204F4B0D0A003E204572726F72212042A7
:101F7E00757373206572726F720D0A003E20457282
:101F8E00726F7221204D6F7265206465766963658C
:101F9E0073207468656E2073706563696669656425
:101FAE000D0A003E204572726F722120556E6B6EC7
:101FBE006F776E20494E4954206D65737361676566
:101FCE000D0A002558003A003E2049447320636FE5
:101FDE006C6C656374696E67202066696E697368E0
:101FEE0065640D0A00425553204572726F723A2095
:101FFE004E6F20736C6176657320666F756E640D1F
:10200E000A0025642E2564002F252E32662F2564A6
:10201E002F252E32662F252E32662F252E32662F35
:04202E0025642F00F6
:00000001FF
