:100000000C9417010C9438010C9438010C943801AD
:100010000C9438010C9438010C9438010C9438017C
:100020000C9438010C9438010C9438010C9438016C
:100030000C9438010C9438010C9438010C9438015C
:100040000C9438010C9438010C9438010C9438014C
:100050000C9438010C9438010C9438010C9438013C
:100060000C9438010C9438010C9438010C9438012C
:100070000C9438010C9438010C9438010C9438011C
:100080000C9438010C9438010C9438010C9438010C
:100090000C9438010C9438010C9438010C943801FC
:1000A0000C9438010C9438010C9438010C943801EC
:1000B0000C9438010C9438010C9438010C943801DC
:1000C0000C9438010C9438010C9438010C943801CC
:1000D0000C9438010C9438010C9438010C943801BC
:1000E0000C9438010C9497040C949F040C949D0478
:1000F0006E616E00696E66004E414E494E4954591C
:10010000494E46CDCCCC3D0AD7233C17B7D13877E2
:10011000CC2B329595E6241FB14F0A0000204100F8
:1001200000C84200401C4620BCBE4CCA1B0E5AAE42
:10013000C59D7400407A10F35A00A0724E18090051
:1001400010A5D4E80000E87648170000E40B54023C
:100150000000CA9A3B000000E1F505000080969877
:1001600000000040420F000000A0860100000010C7
:100170002700000000E80300000000640000000009
:10018000000A00000000000100000000002C76D8EA
:1001900088DC674F0823DFC1DFAE59E1B1B796E5D0
:1001A000E3E453C63AE651997696E8E6C28426EB34
:1001B000898C9B62ED407C6FFCEFBC9C9F40F2BA47
:1001C000A56FA5F490055A2AF75C936B6CF9676DDF
:1001D000C11BFCE0E40D47FEF520E6B500D0ED9034
:1001E0002E0300943577050080841E080000204E01
:1001F0000A000000C80C333333330F986E1283119A
:1002000041EF8D2114893BE65516CFFEE6DB18D170
:10021000844B381BF77C1D901DA4BBE42420328442
:10022000725E228100C9F124ECA1E53D2700112472
:100230001FBECFEFD1E2DEBFCDBF00E00CBF13E0A9
:10024000A0E0B2E0EAEBF2E200E00BBF02C00790F0
:100250000D92A43AB107D9F723E0A4EAB3E001C0B4
:100260001D92AC3BB207E1F70E94140A0C945B119B
:100270000C9400008FB7F894389A4098E7E6F1E0C4
:100280003197F1F700C00000409AF0EAFA95F1F7D3
:100290008FBF0895811102C00C943A018FB7F89472
:1002A000389A40989AE19A95F1F700C0409A90EAFE
:1002B0009A95F1F78FBF08959FB7F894389A4098B0
:1002C0002AE02A95F1F700C038988AE38A95F1F779
:1002D00000C086B12AEF2A95F1F700C09FBF817058
:1002E00008959FB7F894389A4098EFECF7E031976B
:1002F000F1F700C000003898E7ECF0E03197F1F733
:1003000000C0000086B180958170EFECF7E0319776
:10031000F1F700C000009FBF0895CF93DF93D82F5F
:10032000C8E08D2F81700E944A01D695C150C9F74F
:1003300085E08A95F1F70000DF91CF910895AF92A3
:10034000BF92CF92DF92EF92FF920F931F93CF93C2
:10035000DF93EC018B010E94710180EF0E948D01FF
:10036000B12CD12C88EFC82EEE24E394F12C0E94FE
:100370005C01A82EAA0C0E945C018A0DED2DE69569
:10038000E695E6959D2DEC9D900D1124823091F41B
:100390009E012E0F311DF901970102C0220F331F5C
:1003A0009A95E2F7C9019081980F908381E00E94AD
:1003B0004A012EC0813051F1811133C0B11026C0E5
:1003C0000115110519F1F0E0D801AE0FBF1F2C91F6
:1003D00030E0092E02C0359527950A94E2F720FDFA
:1003E00010C0EC0FFD1F970102C0220F331F9A951A
:1003F000E2F7C9019081980F908381E00E944A0141
:1004000002C00E943A01BB24B39402C00E943A0188
:10041000D39430E4D312ABCF81E0BB2019F080E05D
:1004200001C082E0DF91CF911F910F91FF90EF907B
:10043000DF90CF90BF90AF9008951F93CF93DF933D
:10044000C0E0D0E010E00E945C01282F0C2E01C01B
:10045000220F0A94EAF7120F2196C830D10599F7B6
:10046000812FDF91CF911F910895389A409A089576
:10047000EF92FF920F931F93CF93DF93EC010E94B3
:10048000710185E50E948D01F12C28EFE22E01E03B
:1004900010E02F2D2695269526958F2D2E9D800DCB
:1004A0001124A80102C0440F551F8A95E2F7CA0122
:1004B000FE01E20FF11D908189230E944A01F3940D
:1004C00050E4F512E6CFDF91CF911F910F91FF908D
:1004D000EF9008958CEC0C948D0160E070E087EA59
:1004E00093E00E949F01813021F48093AF0380E06C
:1004F0000895823011F481E0089582E0089587EA3A
:1005000093E00895EF92FF921F93CF93DF931F9292
:10051000CDB7DEB7182F7C018E2D811B861740F4D6
:10052000F70181917F0169830E948D016981F4CF78
:100530000F90DF91CF911F91FF90EF900895EF9270
:10054000FF921F93CF93DF931F92CDB7DEB7182F83
:100550007C018E2D811B861740F469830E941D0249
:10056000F70181937F016981F4CF0F90DF91CF91E3
:100570001F91FF90EF900895CF93C82F611105C090
:100580008C2F0E948D0181E004C00E9471018111B5
:10059000F7CFCF910895262F30E0382BC901882757
:1005A000987F892B29F03195219531096DE201C0A1
:1005B0006BE2C90144E0969587954A95E1F72F7063
:1005C0003327E1E7F2E02E9FA0012F9F500D3E9FC1
:1005D000500D1124782FCA010895FF920F931F9395
:1005E000CF93DF930E9471018823C1F10E946D02B5
:1005F000813081F028F0823081F48AE492E002C0F8
:1006000084E292E00E945B10C7EAD3E0F12C0FE88D
:1006100012E006C085E392E0F5CF80E792E0F2CFEA
:1006200089911F928F931F930F930E9443100F90F5
:100630000F900F900F9087E0F81205C083E392E0CF
:100640000E945B1004C08AE390E00E945510F3946E
:1006500088E0F812E5CF82E992E002C08EEA92E0EB
:10066000DF91CF911F910F91FF900C945B10FF923F
:100670000F931F93CF93DF93CDB7DEB7A0970FB63D
:10068000F894DEBF0FBECDBFF62E8E010F5F1F4F59
:100690002EE1F80111922A95E9F79F938F931F920B
:1006A0007F938AEC92E09F938F931F930F930E9406
:1006B0008810BE01615E7F4FC8010E948B0D0FB68E
:1006C000F894DEBF0FBECDBF3DE2F31201C09058DB
:1006D000A0960FB6F894DEBF0FBECDBFDF91CF91CD
:1006E0001F910F91FF90089520E030E040E151E428
:1006F0000E94010C20E030E040EA50E40E94E30A4E
:1007000020E030E040E052E40E947B0A0895CF935D
:10071000DF93CDB7DEB729970FB6F894DEBF0FBED3
:10072000CDBF61E08CEC0E94BC02811105C066EF78
:100730007FE38CE196EC20C084E40E948D012FEFD2
:1007400089E698E1215080409040E1F700C0000028
:1007500061E08CEC0E94BC02882349F38EEB0E947E
:100760008D0169E0CE0101960E949F0269818A8114
:100770000E94CB020E94370329960FB6F894DEBF81
:100780000FBECDBFDF91CF9108950E94870320E077
:1007900030E040E151E40E94010C20E030E040EA0A
:1007A00050E40E94E30A20E030E040E052E40E947E
:1007B0007B0A08950F931F938B019C0160587B4720
:1007C000814E9F4F43E0660F771F881F991F4A9500
:1007D000D1F7A9019801E4E0220F331F441F551FF0
:1007E000EA95D1F70E94580A21501092C500209333
:1007F000C400E1ECF0E080818861808386E0809332
:10080000C2001F910F9108958091C00087FFFCCF17
:100810008091C60008959091C00095FFFCCF809311
:10082000C6000895CF93DF93EC018991882319F0D6
:100830000E940B04FACFDF91CF910895CF93DF93FD
:10084000FC018491EF012196882321F00E940B0482
:10085000FE01F7CFDF91CF910895EF92FF920F93B2
:100860001F93CF93DF938C017B01AB0160E070E0BD
:100870000E94FF0FC0E0D0E0CE15DF05ECF4D7FDFD
:100880001BC00E940404883071F49E01215031097C
:1008900078F0F801E20FF31F10822115310541F0C5
:1008A0002150310905C0F801EC0FFD1F80839E0126
:1008B000E90121968A3001F7C00FD11F1882DF911C
:1008C000CF911F910F91FF90EF900895CF92DF92FB
:1008D000EF92FF920F931F93CF93DF93CDB7DEB7C5
:1008E000CE010C96FC01E190F1906F01F701CF0170
:1008F0008E199F0921912111FACF880F991F880F16
:10090000991F0E94640C8C01A601B7010E94B710C8
:10091000C8010E941204C8010E94FC0CDF91CF9113
:100920001F910F91FF90EF90DF90CF90089583B1CA
:10093000803811F485B115B808950C94970483B1EB
:10094000811101C02F9A0895AF92BF92CF92DF928A
:10095000EF92FF920F931F93CF93DF938091A603A3
:10096000E091A403F091A503811103C081818093DC
:10097000A603C1818091A6038C1789F1D384C48416
:10098000B584A68417810085F184E284D2810E9417
:100990008703AF92BF92CF92DF92EF92FF920F93B5
:1009A0001F931F92CF931F92DF939F938F937F93F9
:1009B0006F9380ED92E09F938F930E946604E09185
:1009C000A403F091A50381818093A6038DB79EB700
:1009D00042960FB6F8949EBF0FBE8DBF12C00E9404
:1009E00087039F938F937F936F938FE593E09F93FC
:1009F0008F930E9466040F900F900F900F900F90AE
:100A00000F90DF91CF911F910F91FF90EF90DF90AA
:100A1000CF90BF90AF90089560E071EE80E090E0DD
:100A20000E94DA0380E884B98FE090E00E94640CB1
:100A3000FC019093A5038093A4030097C9F0128250
:100A40004AE959E969ED71E4478350876187728704
:100A50004DEC5CEC6CE47DE34387548765877687D7
:100A6000118281E080831382148215821682089598
:100A700080E008958091A4039091A503009711F060
:100A80000C94FC0C08954F925F926F927F928F921C
:100A90009F92AF92BF92CF92DF92EF92FF920E940D
:100AA00087036B017C01E091A403F091A50382818F
:100AB0008470828387809084A184B2844384548428
:100AC00065847684A3019201C501B4010E947B0A6A
:100AD0009B01AC01C701B6010E94FD0B87FD0DC053
:100AE00086E793E09F938F930E946604E091A403AE
:100AF000F091A503828192E01AC0A3019201C50181
:100B0000B4010E947A0A9B01AC01C701B6010E94A0
:100B1000DF0A181674F08EE793E09F938F930E947C
:100B20006604E091A403F091A503828191E08927F6
:100B30000BC086E893E09F938F930E946604E09138
:100B4000A403F091A50382810F900F90FF90EF9086
:100B5000DF90CF90BF90AF909F908F907F906F90DD
:100B60005F904F900895FC0180E09191992319F0D6
:100B70009095890FFACF91E08F3F08F490E0890FAC
:100B800008955F926F927F928F929F92AF92BF92E1
:100B9000CF92DF92EF92FF920F931F93CF93DF9349
:100BA000CDB7DEB7A0970FB6F894DEBF0FBECDBFAE
:100BB0000E940404182F0E940404912F9095891319
:100BC00002C08FEF17C0812F8F7059F0E091A403FE
:100BD000F091A503928192FD04C084E0892782836D
:100BE00067C017FF1AC0612F70E06F77603371051F
:100BF00024F081E10E940B045BC00091A4031091DA
:100C0000A503882777FD8095982F0E944D0BF8014A
:100C100067837087818792874BC016FF09C0E09178
:100C2000A403F091A503138614861586168640C08A
:100C300015FF3EC08E010F5F1F4F80E2F801119239
:100C40008A95E9F7E091A403F091A5038384748465
:100C500065845684C780B084A1849284D180F38057
:100C6000E4800E9487035F926F927F928F929F929F
:100C7000AF92BF92CF921F92DF92EF92FF929F931B
:100C80008F937F936F938EE893E09F938F931F933F
:100C90000F930E948810C8010E941204C8010E948C
:100CA000B3050E940B040FB6F894DEBF0FBECDBF94
:100CB000A0960FB6F894DEBF0FBECDBFDF91CF91E7
:100CC0001F910F91FF90EF90DF90CF90BF90AF906A
:100CD0009F908F907F906F905F900895809508957A
:100CE0002F923F924F925F926F927F928F929F923C
:100CF000AF92BF92CF92DF92EF92FF920F931F932A
:100D0000CF93DF93CDB7DEB763970FB6F894DEBF0E
:100D10000FBECDBF7C011B016A01FC011782168248
:100D2000838181FF66C3BE016F5F7F4F4B01F70177
:100D30009381F10193FD859193FF81911F01882398
:100D400009F453C3853239F493FD859193FF819162
:100D50001F01853239F4B70190E00E94111056014D
:100D60006501E5CF10E0512C20E02032A0F48B3259
:100D700069F030F4803259F0833269F420612CC07C
:100D80008D3239F0803339F4216026C0226024602E
:100D900023C0286021C027FD27C030ED380F3A302E
:100DA00078F426FF06C0FAE01F9F300D1124132FA0
:100DB00013C06AE0569E300D1124532E20620CC0E1
:100DC0008E3221F426FD11C3206406C08C3611F446
:100DD000206802C0883641F4F10193FD859193FFAC
:100DE00081911F018111C1CF9BEB980F933018F4B3
:100DF0002061805E06C09BE9980F933008F0AAC17D
:100E00002F7E26FF16E02F73722E853621F4F22FE7
:100E1000F0647F2E08C0863621F4622F6068762E3B
:100E200002C01111115077FE07C01C3348F444244E
:100E30004394410E27E00BC0183030F4212F06C038
:100E400027E04CE3442E03C027E017E0412C560175
:100E500074E0A70EB11CF6016081718182819381DB
:100E6000042DA4010E94FC0E6C01098100FF02C048
:100E700003FF06C071FC07C072FC08C0612C08C0EB
:100E80003DE2632E05C02BE2622E02C090E2692E85
:100E9000802F8C7099F1662011F084E001C083E00E
:100EA000851510F0512C0BC0581A73FC08C0B701FF
:100EB00080E290E00E9411105A94C9F7F3CF6620A7
:100EC00029F0B701862D90E00E94111003FD03C0A8
:100ED00004EF10E002C000EF10E0F72DF0717F2E5C
:100EE000F8018491882309F476C271108052B70109
:100EF00090E00E9411100F5F1F4FF2CF77FE0FC0DE
:100F00004C0C04FF04C08A81813309F44A94141400
:100F100074F5F8E0F41578F588E0482E2CC076FCDE
:100F20002AC0812F90E08C159D059CF06CEFC616B1
:100F30006FEFD60674F0772D7068772E0AC0E2E066
:100F4000F0E0EC0FFD1FE10FF11D8081803319F4FB
:100F500011501111F4CF77FE0EC044244394410E7A
:100F6000812F90E0C816D9062CF41C1904C0442423
:100F7000439401C010E077FE07C01C141D043CF42C
:100F800096012F5F3F4F05C025E030E002C021E011
:100F900030E0662011F02F5F3F4F112331F0412FD9
:100FA00050E04F5F5F4F240F351F452D50E0241751
:100FB000350714F4521A01C0512C872D897049F459
:100FC000552039F0B70180E290E00E9411105A9448
:100FD000F7CF662029F0B701862D90E00E9411100E
:100FE00073FC09C0552039F0B70180E390E00E94FE
:100FF00011105A94F7CF77FE5FC09C2D8D2DD7FE30
:1010000002C090E080E0692E782E40E050E0C601FA
:10101000841991099D878C87960126193709280D17
:10102000391D812F90E0EE27FF27E81BF90BFF8782
:10103000EE87FFEF6F167F0669F4B7018EE290E04E
:101040002B8B3A8B488B598B0E94111059894889F8
:101050003A892B89C614D70454F06C857D856615B2
:1010600077052CF4F901E40FF51F818101C080E3BD
:1010700071E0671A71084F5F5F4FEE85FF856E164E
:101080007F066CF0B70190E02B8B3A8B488B598B25
:101090000E9411102B893A8948895989CACF6C144A
:1010A0007D0439F49A81963318F4953311F404FFD2
:1010B00081E3B70190E04BC08A81813309F00F7E54
:1010C000B70190E00E941110111105C074FE18C004
:1010D00085E490E017C0B7018EE290E00E94111005
:1010E00082E066246394680EF401E80FF11D8081AC
:1010F000B70190E00E941110115041F3862DF1CFFD
:1011000085E690E0B7010E941110D7FC05C0C1141C
:10111000D10439F404FF05C0D194C194D1088DE203
:1011200001C08BE2B70190E00E94111080E36AE0F9
:10113000C616D1042CF08F5FFAE0CF1AD108F7CF92
:10114000B70190E00E941110B701C601C0960E943D
:10115000111041C1833631F0833779F0833509F0BE
:1011600058C021C0560172E0A70EB11CF601808163
:10117000898301E010E0640114C05601F2E0AF0E73
:10118000B11CF601C080D18026FF03C0612F70E042
:1011900002C06FEF7FEFC6012B8B0E9406108C01FF
:1011A0002B892F7715C05601F2E0AF0EB11CF60166
:1011B000C080D18026FF03C0612F70E002C06FEFB6
:1011C0007FEFC6012B8B0E94F40F8C012B892068C6
:1011D000722E23FD1AC0852D90E008171907A8F478
:1011E000B70180E290E00E9411105A94F4CFF6010A
:1011F00077FC859177FE81916F01B70190E00E94A5
:10120000111051105A94015011090115110579F767
:10121000E2C0843611F0893651F5560127FF09C026
:10122000F4E0AF0EB11CF60160817181828193817F
:101230000AC0F2E0AF0EB11CF6016081718188270F
:1012400077FD8095982F022F0F7697FF08C0909515
:101250008095709561957F4F8F4F9F4F00682AE072
:1012600030E0A4010E94E010C82EC8183EC0022F32
:10127000853721F40F7E2AE030E01DC0097F8F36CC
:1012800091F018F4883559F0B0C0803719F08837DC
:1012900011F0ABC0006104FF09C0046007C024FF67
:1012A00008C0066006C028E030E005C020E130E05C
:1012B00002C020E132E0560107FF09C0F4E0AF0EA2
:1012C000B11CF601608171818281938108C0F2E0D6
:1012D000AF0EB11CF6016081718180E090E0A40145
:1012E0000E94E010C82EC8180F7706FF0BC0202FF1
:1012F0002E7FC11650F404FF0AC002FD08C0202F43
:101300002E7E05C0DC2C202F03C0DC2C01C0D12E8A
:1013100024FF0DC0FE01EC0DF11D8081803311F41E
:10132000297E09C022FF06C0D394D39404C0822F23
:10133000867809F0D39423FD13C020FF06C01C2D2E
:10134000D51418F4150D1D19D52CD51468F4B70152
:1013500080E290E02B8B0E941110D3942B89F5CF63
:10136000D51410F45D1801C0512C24FF12C0B70130
:1013700080E390E02B8B0E9411102B8922FF17C075
:1013800021FF03C088E590E002C088E790E0B70144
:101390000CC0822F867859F021FD02C080E201C086
:1013A0008BE227FD8DE2B70190E00E941110C1167B
:1013B00038F4B70180E390E00E9411101150F7CF8C
:1013C000CA94F401EC0DF11D8081B70190E00E94F8
:1013D0001110C110F5CF552009F4C2CCB70180E23D
:1013E00090E00E9411105A94F6CFF7018681978100
:1013F00002C08FEF9FEF63960FB6F894DEBF0FBE6B
:10140000CDBFDF91CF911F910F91FF90EF90DF90B3
:10141000CF90BF90AF909F908F907F906F905F9094
:101420004F903F902F9008951F93CF93DF930E948A
:101430000C058823A9F1E091A403F091A503828112
:1014400094E0892782831AE00E94A404E091A40317
:10145000F091A503E1811E9FF0011124EA5FFD4F89
:101460000190F081E02D1995C091A403D091A503BE
:101470000E9443058A83A091A403B091A50312960C
:101480008C9112971196EC9111971E9FF0011124E7
:10149000EA5FFD4FE80FF11D828111968C93D4CF46
:1014A0000E943A0580E090E0DF91CF911F9108956E
:1014B000A1E21A2EAA1BBB1BFD010DC0AA1FBB1F58
:1014C000EE1FFF1FA217B307E407F50720F0A21BCA
:1014D000B30BE40BF50B661F771F881F991F1A9437
:1014E00069F760957095809590959B01AC01BD0161
:1014F000CF0108955058BB27AA270ED044C135D13B
:1015000030F03AD120F031F49F3F11F41EF42AC19B
:101510000EF4E095E7FB20C1E92F46D180F3BA171E
:10152000620773078407950718F071F49EF55EC192
:101530000EF4E0950B2EBA2FA02D0B01B9019001EE
:101540000C01CA01A0011124FF27591B99F0593F32
:1015500050F4503E68F11A16F040A22F232F342F7A
:101560004427585FF3CF469537952795A795F040C8
:101570005395C9F77EF41F16BA0B620B730B840BDD
:10158000BAF09150A1F0FF0FBB1F661F771F881F95
:10159000C2F70EC0BA0F621F731F841F48F48795ED
:1015A00077956795B795F7959E3F08F0B3CF9395DC
:1015B000880F08F09927EE0F979587950895A8D082
:1015C00008F481E008950CD0DEC0D6D040F0CDD034
:1015D00030F021F45F3F19F0BFC0511108C1C2C003
:1015E000E3D098F39923C9F35523B1F3951B550B19
:1015F000BB27AA2762177307840738F09F5F5F4FE6
:10160000220F331F441FAA1FA9F333D00E2E3AF026
:10161000E0E830D091505040E695001CCAF729D040
:10162000FE2F27D0660F771F881FBB1F261737078F
:101630004807AB07B0E809F0BB0B802DBF01FF27BF
:1016400093585F4F2AF09E3F510568F085C0CFC088
:101650005F3FECF3983EDCF3869577956795B795F9
:10166000F7959F5FC9F7880F911D9695879597F914
:101670000895E1E0660F771F881FBB1F621773078D
:101680008407BA0720F0621B730B840BBA0BEE1FA2
:1016900088F7E0950895E89409C097FB3EF490958B
:1016A0008095709561957F4F8F4F9F4F9923A9F03B
:1016B000F92F96E9BB279395F695879577956795CA
:1016C000B795F111F8CFFAF4BB0F11F460FF1BC00E
:1016D0006F5F7F4F8F4F9F4F16C0882311F096E9A1
:1016E00011C0772321F09EE8872F762F05C066234F
:1016F00071F096E8862F70E060E02AF09A95660F08
:10170000771F881FDAF7880F9695879597F90895C0
:10171000990F0008550FAA0BE0E8FEEF1616170602
:10172000E807F907C0F012161306E407F50798F06A
:10173000621B730B840B950B39F40A2661F0232B83
:10174000242B252B21F408950A2609F4A140A695FF
:101750008FEF811D811D089597F99F6780E870E0E4
:1017600060E008959FEF80EC089500240A94161617
:10177000170618060906089500240A94121613067F
:10178000140605060895092E0394000C11F488230D
:1017900052F0BB0F40F4BF2B11F460FF04C06F5F29
:1017A0007F4F8F4F9F4F089557FD9058440F551FFF
:1017B00059F05F3F71F04795880F97FB991F61F0D3
:1017C0009F3F79F087950895121613061406551F4A
:1017D000F2CF4695F1DF08C0161617061806991FB6
:1017E000F1CF86957105610508940895E894BB27AB
:1017F00066277727CB0197F908958ADF08F48FEFE2
:1018000008950BD0C0CFB1DF28F0B6DF18F09523D4
:1018100009F0A2CFA7CF1124EACFC6DFA0F3959F8E
:10182000D1F3950F50E0551F629FF001729FBB27C7
:10183000F00DB11D639FAA27F00DB11DAA1F649F73
:101840006627B00DA11D661F829F2227B00DA11D26
:10185000621F739FB00DA11D621F839FA00D611DAC
:10186000221F749F3327A00D611D231F849F600DCD
:10187000211D822F762F6A2F11249F5750408AF006
:10188000E1F088234AF0EE0FFF1FBB1F661F771F92
:10189000881F91505040A9F79E3F510570F05CCFD2
:1018A000A6CF5F3FECF3983EDCF38695779567957E
:1018B000B795F795E7959F5FC1F7FE2B880F911DB0
:1018C0009695879597F90895CF93DF938230910588
:1018D00010F482E090E0E091B203F091B30320E0D5
:1018E00030E0A0E0B0E0309739F1408151814817F5
:1018F0005907B8F04817590771F4828193811097FE
:1019000029F013969C938E9312972CC09093B30357
:101910008093B20327C02115310531F042175307D8
:1019200018F0A901DB0101C0EF019A01BD01DF013F
:101930000280F381E02DD7CF21153105F9F0281B66
:10194000390B2430310580F48A819B816115710542
:1019500021F0FB019383828304C09093B3038093AF
:10196000B203FE01329644C0FE01E20FF31F8193E1
:10197000919322503109398328833AC02091B003D2
:101980003091B103232B41F42091020230910302E4
:101990003093B1032093B0032091000230910102F3
:1019A0002115310541F42DB73EB740910402509105
:1019B0000502241B350BE091B003F091B103E2174F
:1019C000F307A0F42E1B3F0B2817390778F0AC0162
:1019D0004E5F5F4F2417350748F04E0F5F1F50933F
:1019E000B1034093B0038193919302C0E0E0F0E033
:1019F000CF01DF91CF910895CF93DF93009709F442
:101A000087C0FC01329713821282C091B203D09139
:101A1000B303209781F420813181280F391F8091F1
:101A2000B0039091B1038217930779F5F093B10356
:101A3000E093B0036DC0DE0120E030E0AE17BF07D9
:101A400050F412964D915C9113979D0141155105EB
:101A500009F1DA01F3CFB383A28340815181840F6E
:101A6000951F8A179B0771F48D919C911197840F94
:101A7000951F02969183808312968D919C91139766
:101A8000938382832115310529F4F093B303E09306
:101A9000B2033EC0D9011396FC93EE9312974D9179
:101AA0005D91A40FB51FEA17FB0779F4808191813E
:101AB000840F951F0296D90111969C938E93828173
:101AC000938113969C938E931297E0E0F0E08A81C5
:101AD0009B81009719F0FE01EC01F9CFCE0102962F
:101AE00028813981820F931F2091B0033091B10377
:101AF0002817390769F4309729F41092B30310922C
:101B0000B20302C013821282D093B103C093B00318
:101B1000DF91CF9108958F929F92AF92BF92CF9213
:101B2000DF92EF92FF920F931F93CF93DF938B017E
:101B30006115710521F0DB018C9311969C93EC01EA
:101B40005E01BFEFAB1ABB0A7501C8808C2D90E017
:101B50000E94D40F892B11F0E501F2CFEDE2CE12F5
:101B600008C07E01F2E0EF0EF11CC980DD24D394A1
:101B700009C02BE2C21205C07E0142E0E40EF11C56
:101B8000C980D12CE701219743E050E060E071E08B
:101B9000CE010E94DC0F892BC1F4239645E050E072
:101BA0006BEF70E0CE010E94DC0F892B09F42596C3
:101BB0000115110519F0D801CD93DC93D11006C1A0
:101BC00060E070E080E89FE70AC143E050E068EF22
:101BD00070E0CE010E94DC0F892B59F4011511052C
:101BE00009F4F9C0B2E0EB0EF11CF801F182E082D9
:101BF000F2C0F70160E070E0CB01C0E0D0E07F010F
:101C0000A0EDAA2EAC0C29E02A1530F14D2D426032
:101C1000B42E2D2D2870D2FE04C0211125C021968E
:101C200023C021112197A5E0B0E09B01AC010E94E7
:101C30004111660F771F881F991F6A0D711D811D45
:101C4000911D6839A9E97A078A07A9E19A0760F026
:101C5000BD2DB660BB2E08C02EEFA2120AC0D3FC69
:101C600050C04D2D4860B42E3196D701CC90DB2C5E
:101C7000C6CF2C2D2F7D253409F043C0A081AD3275
:101C800041F4BD2DB061DB2E7F0122E0E20EF11C9C
:101C90000CC07F01AB3231F04FEFE41AF40A21E0BF
:101CA00030E006C0A2E0EA0EF11CA18122E030E0A3
:101CB000A053AA3018F0E21AF30A23C0F70120E07B
:101CC00030E02038BCE03B075CF4A901440F551F0D
:101CD000440F551F240F351F220F331F2A0F311DAC
:101CE000AF014F5F5F4F7A01A081A053AA3010F47B
:101CF000FA01E7CFD4FE03C0319521953109C20F17
:101D0000D31FD1FE09C00115110531F0E1E0EE1A33
:101D1000F108D801ED92FC920E944B0B2D2D2370FF
:101D2000233019F04B015C0106C04B015C01B7FA8E
:101D3000B094B7F8B09420E030E0A901C501B40137
:101D40000E94DF0A882309F43EC0D7FF06C0D19560
:101D5000C195D10907E111E002C00FE211E068016D
:101D6000B8E1CB1AD10890E2E92EF12CCE15DF05AF
:101D700074F0F8012591359145915491C501B40154
:101D80000E94010C4B015C01CE19DF09EFCF04501A
:101D90001109F594E7940C151D0541F78A2D880F5C
:101DA0008B2D881F8F3F49F020E030E0A901C5014D
:101DB000B4010E94DF0A811106C082E290E0909394
:101DC000B5038093B403C501B40109C060E070E0BD
:101DD00080E89FEF04C060E070E080EC9FE7DF9157
:101DE000CF911F910F91FF90EF90DF90CF90BF9018
:101DF000AF909F908F900895283008F027E0332708
:101E0000DA01990F311D87FD91600096610571051A
:101E100039F432602E5F3D9330E32A95E1F708955F
:101E20009F3F30F080387105610509F03C5F3C5FF1
:101E30003D93913008F08068911DDF93CF931F93FD
:101E40000F93FF92EF92192F987F9695E92F969511
:101E50009695E90FFF27E357FE4F99273327EE2486
:101E6000FF24A701E70105900894079428F4360F92
:101E7000E71EF81E491F511D660F771F881F991F07
:101E80000694A1F70590079428F4E70EF81E491F61
:101E9000561FC11D770F881F991F661F0694A1F753
:101EA0000590079428F4F80E491F561FC71FD11D2F
:101EB000880F991F661F771F0694A1F70590079456
:101EC00020F4490F561FC71FD81F990F661F771F91
:101ED000881F0694A9F784911095177041F0D69544
:101EE000C79557954795F794E7941A95C1F7E3E39B
:101EF000F1E0689415901591359165919591059053
:101F00007FE27395E118F10A430B560BC90BD00918
:101F1000C0F7E10CF11E431F561FC91FD01D7EF4F0
:101F2000703311F48A95E6CFE894015030F0080F31
:101F30000AF40027021708F4202F2395022F7A3382
:101F400028F079E37D932A95E9F710C07D932A95CF
:101F500089F6069497956795379517951794E11824
:101F6000F10A430B560BC90BD00998F023957E91CB
:101F700073957A3308F070E37C932013B8F77E9161
:101F800070617D9330F0839571E37D9370E32A95C2
:101F9000E1F71124EF90FF900F911F91CF91DF9106
:101FA000992787FD90950895911168C1803219F0A5
:101FB00089508550D0F70895FB01DC014150504015
:101FC00088F08D9181341CF08B350CF4805E659126
:101FD00061341CF06B350CF4605E861B611171F38B
:101FE000990B0895881BFCCFFC010590615070404F
:101FF0000110D8F7809590958E0F9F1F0895DC01F2
:1020000001C06D9341505040E0F70895FC016150CC
:10201000704001900110D8F7809590958E0F9F1F0A
:1020200008950F931F93CF93DF93182F092FEB0180
:102030008B8181FD03C08FEF9FEF20C082FF10C016
:102040004E815F812C813D81421753077CF4E881EA
:10205000F9819F012F5F3F4F39832883108306C08A
:10206000E885F985812F1995892B29F72E813F81E4
:102070002F5F3F4F3F832E83812F902FDF91CF9192
:102080001F910F910895CF93DF93CDB7DEB7FE0177
:10209000369661917191AF018091B8039091B90327
:1020A0000E947006DF91CF9108956091B8037091FE
:1020B000B9030C9411100F931F93CF93DF93E0910A
:1020C000B803F091B903238121FF1BC0EC0100E0AC
:1020D00010E089916091B8037091B903DB01189603
:1020E000ED91FC911997882331F01995892B89F38B
:1020F0000FEF1FEFEECF8AE01995892B11F4C8017D
:1021000002C08FEF9FEFDF91CF911F910F91089544
:102110000F931F93CF93DF93CDB7DEB72E970FB6F4
:10212000F894DEBF0FBECDBF0E891F8986E08C8379
:102130001A8309838FEF9FE79E838D83AE01465EEE
:102140005F4F688D798DCE0101960E947006EF81F8
:10215000F885E00FF11F10822E960FB6F894DEBFBF
:102160000FBECDBFDF91CF911F910F9108950F93B7
:102170001F93CF93DF93CDB7DEB72E970FB6F894AA
:10218000DEBF0FBECDBF8C0186E08C831A8309832E
:102190008FEF9FE79E838D83CE0101960E9470068C
:1021A000EF81F885E00FF11F10822E960FB6F8949C
:1021B000DEBF0FBECDBFDF91CF911F910F9108956C
:1021C000FA01AA27283051F1203181F1E8946F9368
:1021D0006E7F6E5F7F4F8F4F9F4FAF4FB1E03ED00E
:1021E000B4E03CD0670F781F891F9A1FA11D680FAC
:1021F000791F8A1F911DA11D6A0F711D811D911DDF
:10220000A11D20D009F468943F912AE0269F112453
:102210003019305D3193DEF6CF010895462F4770B7
:10222000405D4193B3E00FD0C9F7F6CF462F4F7012
:10223000405D4A3318F0495D31FD4052419302D070
:10224000A9F7EACFB4E0A695979587957795679516
:10225000BA95C9F700976105710508959B01AC0116
:102260000A2E06945795479537952795BA95C9F73D
:10227000620F731F841F951FA01D0895992788273B
:1022800008950E944C11A59F900DB49F900DA49F9E
:10229000800D911D11240895A29FB001B39FC0012C
:1022A000A39F700D811D1124911DB29F700D811D82
:0A22B0001124911D0895F894FFCF4A
:1022BA000000BC0320009D04000000000101010190
:1022CA00970400000000010201019F0400000000C1
:1022DA00020201023E204275732054657374202D58
:1022EA00204F4B0D003E204572726F7221204275BD
:1022FA007373206572726F720D003E204572726FA1
:10230A007221204D6F72652064657669636573205A
:10231A007468656E207370656369666965640D002B
:10232A003E204572726F722120556E6B6E6F776E0A
:10233A0020494E4954206D6573736167650D002508
:10234A0058003E2049447320636F6C6C656374695E
:10235A006E67202066696E69736865640D00425570
:10236A0053204572726F723A204E6F20736C6176F9
:10237A00657320666F756E640D0025642E256400F2
:10238A000A2D2D2D2D2D2D2D2D2D53595354454DBF
:10239A00205354415455532D2D2D2D2D2D2D2D2D9A
:1023AA000A54454D50455241545552452028432917
:1023BA003A20252E32660A464C4147533A20256474
:1023CA000A43555252454E542053544154453A20DB
:1023DA0025640A534554504F494E543A20252E320B
:1023EA00660A4F46465345543A20252E32660A2D30
:1023FA002D2D2D2D2D2D2D2D2D2D2D2D2D2D2D2D03
:10240A002D2D2D2D2D2D2D2D2D2D2D2D2D2D0054F8
:10241A00454D5045524154555245202843293A20AA
:10242A00252E32660A000A5355423A310A000A53E7
:10243A0055423A320A000A5355423A330A00252EC7
:10244A0032662F257A752F25642F252E32662F2581
:04245A002E326600B8
:00000001FF
